{
  "contractName": "TokenFarm",
  "abi": [
    {
      "inputs": [
        {
          "internalType": "contract PoiToken",
          "name": "_poiToken",
          "type": "address"
        },
        {
          "internalType": "contract DaiToken",
          "name": "_daiToken",
          "type": "address"
        }
      ],
      "stateMutability": "nonpayable",
      "type": "constructor"
    },
    {
      "inputs": [],
      "name": "daiToken",
      "outputs": [
        {
          "internalType": "contract DaiToken",
          "name": "",
          "type": "address"
        }
      ],
      "stateMutability": "view",
      "type": "function",
      "constant": true
    },
    {
      "inputs": [
        {
          "internalType": "address",
          "name": "",
          "type": "address"
        }
      ],
      "name": "hasStaked",
      "outputs": [
        {
          "internalType": "bool",
          "name": "",
          "type": "bool"
        }
      ],
      "stateMutability": "view",
      "type": "function",
      "constant": true
    },
    {
      "inputs": [
        {
          "internalType": "address",
          "name": "",
          "type": "address"
        }
      ],
      "name": "isStaking",
      "outputs": [
        {
          "internalType": "bool",
          "name": "",
          "type": "bool"
        }
      ],
      "stateMutability": "view",
      "type": "function",
      "constant": true
    },
    {
      "inputs": [],
      "name": "name",
      "outputs": [
        {
          "internalType": "string",
          "name": "",
          "type": "string"
        }
      ],
      "stateMutability": "view",
      "type": "function",
      "constant": true
    },
    {
      "inputs": [],
      "name": "owner",
      "outputs": [
        {
          "internalType": "address",
          "name": "",
          "type": "address"
        }
      ],
      "stateMutability": "view",
      "type": "function",
      "constant": true
    },
    {
      "inputs": [],
      "name": "poiToken",
      "outputs": [
        {
          "internalType": "contract PoiToken",
          "name": "",
          "type": "address"
        }
      ],
      "stateMutability": "view",
      "type": "function",
      "constant": true
    },
    {
      "inputs": [
        {
          "internalType": "uint256",
          "name": "",
          "type": "uint256"
        }
      ],
      "name": "stakers",
      "outputs": [
        {
          "internalType": "address",
          "name": "",
          "type": "address"
        }
      ],
      "stateMutability": "view",
      "type": "function",
      "constant": true
    },
    {
      "inputs": [
        {
          "internalType": "address",
          "name": "",
          "type": "address"
        }
      ],
      "name": "stakingBalance",
      "outputs": [
        {
          "internalType": "uint256",
          "name": "",
          "type": "uint256"
        }
      ],
      "stateMutability": "view",
      "type": "function",
      "constant": true
    },
    {
      "inputs": [
        {
          "internalType": "uint256",
          "name": "_amount",
          "type": "uint256"
        }
      ],
      "name": "stakeTokens",
      "outputs": [],
      "stateMutability": "nonpayable",
      "type": "function"
    },
    {
      "inputs": [],
      "name": "unstakeTokens",
      "outputs": [],
      "stateMutability": "nonpayable",
      "type": "function"
    },
    {
      "inputs": [],
      "name": "issueTokens",
      "outputs": [],
      "stateMutability": "nonpayable",
      "type": "function"
    }
  ],
  "bytecode": "0x60806040526040518060400160405280600a81526020017f546f6b656e204661726d00000000000000000000000000000000000000000000815250600090805190602001906200005192919062000150565b503480156200005f57600080fd5b50604051620012663803806200126683398181016040528101906200008591906200022e565b81600260006101000a81548173ffffffffffffffffffffffffffffffffffffffff021916908373ffffffffffffffffffffffffffffffffffffffff16021790555080600360006101000a81548173ffffffffffffffffffffffffffffffffffffffff021916908373ffffffffffffffffffffffffffffffffffffffff16021790555033600160006101000a81548173ffffffffffffffffffffffffffffffffffffffff021916908373ffffffffffffffffffffffffffffffffffffffff16021790555050506200036f565b8280546200015e90620002d1565b90600052602060002090601f016020900481019282620001825760008555620001ce565b82601f106200019d57805160ff1916838001178555620001ce565b82800160010185558215620001ce579182015b82811115620001cd578251825591602001919060010190620001b0565b5b509050620001dd9190620001e1565b5090565b5b80821115620001fc576000816000905550600101620001e2565b5090565b60008151905062000211816200033b565b92915050565b600081519050620002288162000355565b92915050565b6000806040838503121562000248576200024762000336565b5b6000620002588582860162000217565b92505060206200026b8582860162000200565b9150509250929050565b60006200028282620002b1565b9050919050565b6000620002968262000275565b9050919050565b6000620002aa8262000275565b9050919050565b600073ffffffffffffffffffffffffffffffffffffffff82169050919050565b60006002820490506001821680620002ea57607f821691505b6020821081141562000301576200030062000307565b5b50919050565b7f4e487b7100000000000000000000000000000000000000000000000000000000600052602260045260246000fd5b600080fd5b620003468162000289565b81146200035257600080fd5b50565b62000360816200029d565b81146200036c57600080fd5b50565b610ee7806200037f6000396000f3fe608060405234801561001057600080fd5b50600436106100a95760003560e01c80637547c7a3116100715780637547c7a3146101545780638da5cb5b14610170578063a5ce413b1461018e578063be22f54614610198578063c93c8f34146101b6578063fd5e6dd1146101e6576100a9565b806306fdde03146100ae57806345bc78ab146100cc5780634a947eb1146100fc57806360ab58521461011a5780636f49712b14610124575b600080fd5b6100b6610216565b6040516100c39190610bdc565b60405180910390f35b6100e660048036038101906100e19190610a05565b6102a4565b6040516100f39190610bfe565b60405180910390f35b6101046102bc565b6040516101119190610bc1565b60405180910390f35b6101226102e2565b005b61013e60048036038101906101399190610a05565b6104a5565b60405161014b9190610b8b565b60405180910390f35b61016e60048036038101906101699190610a5f565b6104c5565b005b61017861077a565b6040516101859190610b10565b60405180910390f35b6101966107a0565b005b6101a0610941565b6040516101ad9190610ba6565b60405180910390f35b6101d060048036038101906101cb9190610a05565b610967565b6040516101dd9190610b8b565b60405180910390f35b61020060048036038101906101fb9190610a5f565b610987565b60405161020d9190610b10565b60405180910390f35b6000805461022390610d4e565b80601f016020809104026020016040519081016040528092919081815260200182805461024f90610d4e565b801561029c5780601f106102715761010080835404028352916020019161029c565b820191906000526020600020905b81548152906001019060200180831161027f57829003601f168201915b505050505081565b60056020528060005260406000206000915090505481565b600260009054906101000a900473ffffffffffffffffffffffffffffffffffffffff1681565b600160009054906101000a900473ffffffffffffffffffffffffffffffffffffffff1673ffffffffffffffffffffffffffffffffffffffff163373ffffffffffffffffffffffffffffffffffffffff161461033c57600080fd5b60005b6004805490508110156104a25760006004828154811061036257610361610e27565b5b9060005260206000200160009054906101000a900473ffffffffffffffffffffffffffffffffffffffff1690506000600560008373ffffffffffffffffffffffffffffffffffffffff1673ffffffffffffffffffffffffffffffffffffffff168152602001908152602001600020549050600081111561048d57600260009054906101000a900473ffffffffffffffffffffffffffffffffffffffff1673ffffffffffffffffffffffffffffffffffffffff1663a9059cbb83836040518363ffffffff1660e01b8152600401610439929190610b62565b602060405180830381600087803b15801561045357600080fd5b505af1158015610467573d6000803e3d6000fd5b505050506040513d601f19601f8201168201806040525081019061048b9190610a32565b505b5050808061049a90610d80565b91505061033f565b50565b60076020528060005260406000206000915054906101000a900460ff1681565b600081116104d257600080fd5b600360009054906101000a900473ffffffffffffffffffffffffffffffffffffffff1673ffffffffffffffffffffffffffffffffffffffff166323b872dd3330846040518463ffffffff1660e01b815260040161053193929190610b2b565b602060405180830381600087803b15801561054b57600080fd5b505af115801561055f573d6000803e3d6000fd5b505050506040513d601f19601f820116820180604052508101906105839190610a32565b5080600560003373ffffffffffffffffffffffffffffffffffffffff1673ffffffffffffffffffffffffffffffffffffffff168152602001908152602001600020546105cf9190610c35565b600560003373ffffffffffffffffffffffffffffffffffffffff1673ffffffffffffffffffffffffffffffffffffffff16815260200190815260200160002081905550600660003373ffffffffffffffffffffffffffffffffffffffff1673ffffffffffffffffffffffffffffffffffffffff16815260200190815260200160002060009054906101000a900460ff166106c7576004339080600181540180825580915050600190039060005260206000200160009091909190916101000a81548173ffffffffffffffffffffffffffffffffffffffff021916908373ffffffffffffffffffffffffffffffffffffffff1602179055505b6001600660003373ffffffffffffffffffffffffffffffffffffffff1673ffffffffffffffffffffffffffffffffffffffff16815260200190815260200160002060006101000a81548160ff0219169083151502179055506001600760003373ffffffffffffffffffffffffffffffffffffffff1673ffffffffffffffffffffffffffffffffffffffff16815260200190815260200160002060006101000a81548160ff02191690831515021790555050565b600160009054906101000a900473ffffffffffffffffffffffffffffffffffffffff1681565b6000600560003373ffffffffffffffffffffffffffffffffffffffff1673ffffffffffffffffffffffffffffffffffffffff168152602001908152602001600020549050600081116107f157600080fd5b600360009054906101000a900473ffffffffffffffffffffffffffffffffffffffff1673ffffffffffffffffffffffffffffffffffffffff1663a9059cbb33836040518363ffffffff1660e01b815260040161084e929190610b62565b602060405180830381600087803b15801561086857600080fd5b505af115801561087c573d6000803e3d6000fd5b505050506040513d601f19601f820116820180604052508101906108a09190610a32565b506000600560003373ffffffffffffffffffffffffffffffffffffffff1673ffffffffffffffffffffffffffffffffffffffff168152602001908152602001600020819055506000600760003373ffffffffffffffffffffffffffffffffffffffff1673ffffffffffffffffffffffffffffffffffffffff16815260200190815260200160002060006101000a81548160ff02191690831515021790555050565b600360009054906101000a900473ffffffffffffffffffffffffffffffffffffffff1681565b60066020528060005260406000206000915054906101000a900460ff1681565b6004818154811061099757600080fd5b906000526020600020016000915054906101000a900473ffffffffffffffffffffffffffffffffffffffff1681565b6000813590506109d581610e6c565b92915050565b6000815190506109ea81610e83565b92915050565b6000813590506109ff81610e9a565b92915050565b600060208284031215610a1b57610a1a610e56565b5b6000610a29848285016109c6565b91505092915050565b600060208284031215610a4857610a47610e56565b5b6000610a56848285016109db565b91505092915050565b600060208284031215610a7557610a74610e56565b5b6000610a83848285016109f0565b91505092915050565b610a9581610c8b565b82525050565b610aa481610c9d565b82525050565b610ab381610cd3565b82525050565b610ac281610ce5565b82525050565b6000610ad382610c19565b610add8185610c24565b9350610aed818560208601610d1b565b610af681610e5b565b840191505092915050565b610b0a81610cc9565b82525050565b6000602082019050610b256000830184610a8c565b92915050565b6000606082019050610b406000830186610a8c565b610b4d6020830185610a8c565b610b5a6040830184610b01565b949350505050565b6000604082019050610b776000830185610a8c565b610b846020830184610b01565b9392505050565b6000602082019050610ba06000830184610a9b565b92915050565b6000602082019050610bbb6000830184610aaa565b92915050565b6000602082019050610bd66000830184610ab9565b92915050565b60006020820190508181036000830152610bf68184610ac8565b905092915050565b6000602082019050610c136000830184610b01565b92915050565b600081519050919050565b600082825260208201905092915050565b6000610c4082610cc9565b9150610c4b83610cc9565b9250827fffffffffffffffffffffffffffffffffffffffffffffffffffffffffffffffff03821115610c8057610c7f610dc9565b5b828201905092915050565b6000610c9682610ca9565b9050919050565b60008115159050919050565b600073ffffffffffffffffffffffffffffffffffffffff82169050919050565b6000819050919050565b6000610cde82610cf7565b9050919050565b6000610cf082610cf7565b9050919050565b6000610d0282610d09565b9050919050565b6000610d1482610ca9565b9050919050565b60005b83811015610d39578082015181840152602081019050610d1e565b83811115610d48576000848401525b50505050565b60006002820490506001821680610d6657607f821691505b60208210811415610d7a57610d79610df8565b5b50919050565b6000610d8b82610cc9565b91507fffffffffffffffffffffffffffffffffffffffffffffffffffffffffffffffff821415610dbe57610dbd610dc9565b5b600182019050919050565b7f4e487b7100000000000000000000000000000000000000000000000000000000600052601160045260246000fd5b7f4e487b7100000000000000000000000000000000000000000000000000000000600052602260045260246000fd5b7f4e487b7100000000000000000000000000000000000000000000000000000000600052603260045260246000fd5b600080fd5b6000601f19601f8301169050919050565b610e7581610c8b565b8114610e8057600080fd5b50565b610e8c81610c9d565b8114610e9757600080fd5b50565b610ea381610cc9565b8114610eae57600080fd5b5056fea2646970667358221220d147dab24507d6d83ad9ff501ea6132dca6d018bcd9c7eb811e6a487a4f27dcd64736f6c63430008070033",
  "immutableReferences": {},
  "source": "pragma solidity ^0.8.4;\n\nimport \"./PoiToken.sol\";\nimport \"./DaiToken.sol\";\n\ncontract TokenFarm{\n\tstring public name = \"Token Farm\";\n\taddress public owner;\n\n\tPoiToken public poiToken;\n\tDaiToken public daiToken;\n\n\taddress[] public stakers;\n\tmapping(address => uint) public stakingBalance;\n\tmapping(address => bool) public hasStaked;\n\tmapping(address => bool) public isStaking;\n \n\tconstructor(PoiToken _poiToken, DaiToken _daiToken){\n\t\tpoiToken = _poiToken;\n\t\tdaiToken = _daiToken;\n\t\towner = msg.sender;\n\t}\n\n\tfunction stakeTokens(uint _amount) public{\n\t\trequire(_amount > 0);\n\t\tdaiToken.transferFrom(msg.sender, address(this), _amount);\n\n\t\tstakingBalance[msg.sender] = stakingBalance[msg.sender] + _amount;\n\n\t\tif(!hasStaked[msg.sender]){\n\t\t\tstakers.push(msg.sender);\n\t\t}\n\t\thasStaked[msg.sender] = true;\n\t\tisStaking[msg.sender] = true;\n\t}\n\tfunction unstakeTokens() public {\n\t\tuint balance = stakingBalance[msg.sender];\n\t\trequire(balance > 0);\n\t\tdaiToken.transfer(msg.sender, balance);\n\t\tstakingBalance[msg.sender] = 0;\n\t\tisStaking[msg.sender] = false;\n\t}\n\tfunction issueTokens() public{\n\t\trequire(msg.sender == owner);\n\t\tfor (uint i = 0; i < stakers.length; i++){\n\t\t\taddress recipient = stakers[i];\n\t\t\tuint balance = stakingBalance[recipient];\n\t\t\tif(balance > 0){\n\t\t\t\tpoiToken.transfer(recipient, balance);\n\t\t\t}\n\t\t}\n\t}\n}\n",
  "sourcePath": "/Users/minjaelee/Documents/ERC-20/code/defi-farm/src/contracts/TokenFarm.sol",
  "compiler": {
    "name": "solc",
    "version": "0.8.7+commit.e28d00a7.Emscripten.clang"
  },
  "schemaVersion": "3.4.3",
  "updatedAt": "2022-02-16T01:25:20.945Z",
  "networkType": "ethereum",
  "devdoc": {
    "kind": "dev",
    "methods": {},
    "version": 1
  },
  "userdoc": {
    "kind": "user",
    "methods": {},
    "version": 1
  }
}