{
  "contractName": "TokenFarm",
  "abi": [
    {
      "inputs": [
        {
          "internalType": "contract PoiToken",
          "name": "_poiToken",
          "type": "address"
        },
        {
          "internalType": "contract DaiToken",
          "name": "_daiToken",
          "type": "address"
        }
      ],
      "stateMutability": "nonpayable",
      "type": "constructor"
    },
    {
      "inputs": [],
      "name": "daiToken",
      "outputs": [
        {
          "internalType": "contract DaiToken",
          "name": "",
          "type": "address"
        }
      ],
      "stateMutability": "view",
      "type": "function",
      "constant": true
    },
    {
      "inputs": [
        {
          "internalType": "address",
          "name": "",
          "type": "address"
        }
      ],
      "name": "hasStaked",
      "outputs": [
        {
          "internalType": "bool",
          "name": "",
          "type": "bool"
        }
      ],
      "stateMutability": "view",
      "type": "function",
      "constant": true
    },
    {
      "inputs": [
        {
          "internalType": "address",
          "name": "",
          "type": "address"
        }
      ],
      "name": "isStaking",
      "outputs": [
        {
          "internalType": "bool",
          "name": "",
          "type": "bool"
        }
      ],
      "stateMutability": "view",
      "type": "function",
      "constant": true
    },
    {
      "inputs": [],
      "name": "name",
      "outputs": [
        {
          "internalType": "string",
          "name": "",
          "type": "string"
        }
      ],
      "stateMutability": "view",
      "type": "function",
      "constant": true
    },
    {
      "inputs": [],
      "name": "owner",
      "outputs": [
        {
          "internalType": "address",
          "name": "",
          "type": "address"
        }
      ],
      "stateMutability": "view",
      "type": "function",
      "constant": true
    },
    {
      "inputs": [],
      "name": "poiToken",
      "outputs": [
        {
          "internalType": "contract PoiToken",
          "name": "",
          "type": "address"
        }
      ],
      "stateMutability": "view",
      "type": "function",
      "constant": true
    },
    {
      "inputs": [
        {
          "internalType": "uint256",
          "name": "",
          "type": "uint256"
        }
      ],
      "name": "stakers",
      "outputs": [
        {
          "internalType": "address",
          "name": "",
          "type": "address"
        }
      ],
      "stateMutability": "view",
      "type": "function",
      "constant": true
    },
    {
      "inputs": [
        {
          "internalType": "address",
          "name": "",
          "type": "address"
        }
      ],
      "name": "stakingBalance",
      "outputs": [
        {
          "internalType": "uint256",
          "name": "",
          "type": "uint256"
        }
      ],
      "stateMutability": "view",
      "type": "function",
      "constant": true
    },
    {
      "inputs": [
        {
          "internalType": "uint256",
          "name": "_amount",
          "type": "uint256"
        }
      ],
      "name": "stakeTokens",
      "outputs": [],
      "stateMutability": "nonpayable",
      "type": "function"
    },
    {
      "inputs": [],
      "name": "unstakeTokens",
      "outputs": [],
      "stateMutability": "nonpayable",
      "type": "function"
    },
    {
      "inputs": [],
      "name": "issueTokens",
      "outputs": [],
      "stateMutability": "nonpayable",
      "type": "function"
    }
  ],
  "bytecode": "0x60806040526040518060400160405280600a81526020017f546f6b656e204661726d00000000000000000000000000000000000000000000815250600090805190602001906200005192919062000150565b503480156200005f57600080fd5b5060405162001253380380620012538339818101604052810190620000859190620002c3565b81600260006101000a81548173ffffffffffffffffffffffffffffffffffffffff021916908373ffffffffffffffffffffffffffffffffffffffff16021790555080600360006101000a81548173ffffffffffffffffffffffffffffffffffffffff021916908373ffffffffffffffffffffffffffffffffffffffff16021790555033600160006101000a81548173ffffffffffffffffffffffffffffffffffffffff021916908373ffffffffffffffffffffffffffffffffffffffff16021790555050506200036f565b8280546200015e9062000339565b90600052602060002090601f016020900481019282620001825760008555620001ce565b82601f106200019d57805160ff1916838001178555620001ce565b82800160010185558215620001ce579182015b82811115620001cd578251825591602001919060010190620001b0565b5b509050620001dd9190620001e1565b5090565b5b80821115620001fc576000816000905550600101620001e2565b5090565b600080fd5b600073ffffffffffffffffffffffffffffffffffffffff82169050919050565b6000620002328262000205565b9050919050565b6000620002468262000225565b9050919050565b620002588162000239565b81146200026457600080fd5b50565b60008151905062000278816200024d565b92915050565b60006200028b8262000225565b9050919050565b6200029d816200027e565b8114620002a957600080fd5b50565b600081519050620002bd8162000292565b92915050565b60008060408385031215620002dd57620002dc62000200565b5b6000620002ed8582860162000267565b92505060206200030085828601620002ac565b9150509250929050565b7f4e487b7100000000000000000000000000000000000000000000000000000000600052602260045260246000fd5b600060028204905060018216806200035257607f821691505b602082108114156200036957620003686200030a565b5b50919050565b610ed4806200037f6000396000f3fe608060405234801561001057600080fd5b50600436106100a95760003560e01c80637547c7a3116100715780637547c7a3146101545780638da5cb5b14610170578063a5ce413b1461018e578063be22f54614610198578063c93c8f34146101b6578063fd5e6dd1146101e6576100a9565b806306fdde03146100ae57806345bc78ab146100cc5780634a947eb1146100fc57806360ab58521461011a5780636f49712b14610124575b600080fd5b6100b6610216565b6040516100c39190610a32565b60405180910390f35b6100e660048036038101906100e19190610ab7565b6102a4565b6040516100f39190610afd565b60405180910390f35b6101046102bc565b6040516101119190610b77565b60405180910390f35b6101226102e2565b005b61013e60048036038101906101399190610ab7565b610496565b60405161014b9190610bad565b60405180910390f35b61016e60048036038101906101699190610bf4565b6104b6565b005b61017861075c565b6040516101859190610c30565b60405180910390f35b610196610782565b005b6101a0610914565b6040516101ad9190610c6c565b60405180910390f35b6101d060048036038101906101cb9190610ab7565b61093a565b6040516101dd9190610bad565b60405180910390f35b61020060048036038101906101fb9190610bf4565b61095a565b60405161020d9190610c30565b60405180910390f35b6000805461022390610cb6565b80601f016020809104026020016040519081016040528092919081815260200182805461024f90610cb6565b801561029c5780601f106102715761010080835404028352916020019161029c565b820191906000526020600020905b81548152906001019060200180831161027f57829003601f168201915b505050505081565b60056020528060005260406000206000915090505481565b600260009054906101000a900473ffffffffffffffffffffffffffffffffffffffff1681565b600160009054906101000a900473ffffffffffffffffffffffffffffffffffffffff1673ffffffffffffffffffffffffffffffffffffffff163373ffffffffffffffffffffffffffffffffffffffff161461033c57600080fd5b60005b6004805490508110156104935760006004828154811061036257610361610ce8565b5b9060005260206000200160009054906101000a900473ffffffffffffffffffffffffffffffffffffffff1690506000600560008373ffffffffffffffffffffffffffffffffffffffff1673ffffffffffffffffffffffffffffffffffffffff168152602001908152602001600020549050600081111561047e57600260009054906101000a900473ffffffffffffffffffffffffffffffffffffffff1673ffffffffffffffffffffffffffffffffffffffff1663a9059cbb83836040518363ffffffff1660e01b8152600401610439929190610d17565b6020604051808303816000875af1158015610458573d6000803e3d6000fd5b505050506040513d601f19601f8201168201806040525081019061047c9190610d6c565b505b5050808061048b90610dc8565b91505061033f565b50565b60076020528060005260406000206000915054906101000a900460ff1681565b600081116104c357600080fd5b600360009054906101000a900473ffffffffffffffffffffffffffffffffffffffff1673ffffffffffffffffffffffffffffffffffffffff166323b872dd3330846040518463ffffffff1660e01b815260040161052293929190610e11565b6020604051808303816000875af1158015610541573d6000803e3d6000fd5b505050506040513d601f19601f820116820180604052508101906105659190610d6c565b5080600560003373ffffffffffffffffffffffffffffffffffffffff1673ffffffffffffffffffffffffffffffffffffffff168152602001908152602001600020546105b19190610e48565b600560003373ffffffffffffffffffffffffffffffffffffffff1673ffffffffffffffffffffffffffffffffffffffff16815260200190815260200160002081905550600660003373ffffffffffffffffffffffffffffffffffffffff1673ffffffffffffffffffffffffffffffffffffffff16815260200190815260200160002060009054906101000a900460ff166106a9576004339080600181540180825580915050600190039060005260206000200160009091909190916101000a81548173ffffffffffffffffffffffffffffffffffffffff021916908373ffffffffffffffffffffffffffffffffffffffff1602179055505b6001600660003373ffffffffffffffffffffffffffffffffffffffff1673ffffffffffffffffffffffffffffffffffffffff16815260200190815260200160002060006101000a81548160ff0219169083151502179055506001600760003373ffffffffffffffffffffffffffffffffffffffff1673ffffffffffffffffffffffffffffffffffffffff16815260200190815260200160002060006101000a81548160ff02191690831515021790555050565b600160009054906101000a900473ffffffffffffffffffffffffffffffffffffffff1681565b6000600560003373ffffffffffffffffffffffffffffffffffffffff1673ffffffffffffffffffffffffffffffffffffffff168152602001908152602001600020549050600081116107d357600080fd5b600360009054906101000a900473ffffffffffffffffffffffffffffffffffffffff1673ffffffffffffffffffffffffffffffffffffffff1663a9059cbb33836040518363ffffffff1660e01b8152600401610830929190610d17565b6020604051808303816000875af115801561084f573d6000803e3d6000fd5b505050506040513d601f19601f820116820180604052508101906108739190610d6c565b506000600560003373ffffffffffffffffffffffffffffffffffffffff1673ffffffffffffffffffffffffffffffffffffffff168152602001908152602001600020819055506000600760003373ffffffffffffffffffffffffffffffffffffffff1673ffffffffffffffffffffffffffffffffffffffff16815260200190815260200160002060006101000a81548160ff02191690831515021790555050565b600360009054906101000a900473ffffffffffffffffffffffffffffffffffffffff1681565b60066020528060005260406000206000915054906101000a900460ff1681565b6004818154811061096a57600080fd5b906000526020600020016000915054906101000a900473ffffffffffffffffffffffffffffffffffffffff1681565b600081519050919050565b600082825260208201905092915050565b60005b838110156109d35780820151818401526020810190506109b8565b838111156109e2576000848401525b50505050565b6000601f19601f8301169050919050565b6000610a0482610999565b610a0e81856109a4565b9350610a1e8185602086016109b5565b610a27816109e8565b840191505092915050565b60006020820190508181036000830152610a4c81846109f9565b905092915050565b600080fd5b600073ffffffffffffffffffffffffffffffffffffffff82169050919050565b6000610a8482610a59565b9050919050565b610a9481610a79565b8114610a9f57600080fd5b50565b600081359050610ab181610a8b565b92915050565b600060208284031215610acd57610acc610a54565b5b6000610adb84828501610aa2565b91505092915050565b6000819050919050565b610af781610ae4565b82525050565b6000602082019050610b126000830184610aee565b92915050565b6000819050919050565b6000610b3d610b38610b3384610a59565b610b18565b610a59565b9050919050565b6000610b4f82610b22565b9050919050565b6000610b6182610b44565b9050919050565b610b7181610b56565b82525050565b6000602082019050610b8c6000830184610b68565b92915050565b60008115159050919050565b610ba781610b92565b82525050565b6000602082019050610bc26000830184610b9e565b92915050565b610bd181610ae4565b8114610bdc57600080fd5b50565b600081359050610bee81610bc8565b92915050565b600060208284031215610c0a57610c09610a54565b5b6000610c1884828501610bdf565b91505092915050565b610c2a81610a79565b82525050565b6000602082019050610c456000830184610c21565b92915050565b6000610c5682610b44565b9050919050565b610c6681610c4b565b82525050565b6000602082019050610c816000830184610c5d565b92915050565b7f4e487b7100000000000000000000000000000000000000000000000000000000600052602260045260246000fd5b60006002820490506001821680610cce57607f821691505b60208210811415610ce257610ce1610c87565b5b50919050565b7f4e487b7100000000000000000000000000000000000000000000000000000000600052603260045260246000fd5b6000604082019050610d2c6000830185610c21565b610d396020830184610aee565b9392505050565b610d4981610b92565b8114610d5457600080fd5b50565b600081519050610d6681610d40565b92915050565b600060208284031215610d8257610d81610a54565b5b6000610d9084828501610d57565b91505092915050565b7f4e487b7100000000000000000000000000000000000000000000000000000000600052601160045260246000fd5b6000610dd382610ae4565b91507fffffffffffffffffffffffffffffffffffffffffffffffffffffffffffffffff821415610e0657610e05610d99565b5b600182019050919050565b6000606082019050610e266000830186610c21565b610e336020830185610c21565b610e406040830184610aee565b949350505050565b6000610e5382610ae4565b9150610e5e83610ae4565b9250827fffffffffffffffffffffffffffffffffffffffffffffffffffffffffffffffff03821115610e9357610e92610d99565b5b82820190509291505056fea2646970667358221220850ba5d278bfcea92b8b996181596abc8c12a64fa2698485c2fb94ffd29ca5a264736f6c634300080b0033",
  "immutableReferences": {},
  "source": "pragma solidity ^0.8.11;\n\nimport \"./PoiToken.sol\";\nimport \"./DaiToken.sol\";\n\ncontract TokenFarm{\n\tstring public name = \"Token Farm\";\n\taddress public owner;\n\n\tPoiToken public poiToken;\n\tDaiToken public daiToken;\n\n\taddress[] public stakers;\n\tmapping(address => uint) public stakingBalance;\n\tmapping(address => bool) public hasStaked;\n\tmapping(address => bool) public isStaking;\n \n\tconstructor(PoiToken _poiToken, DaiToken _daiToken){\n\t\tpoiToken = _poiToken;\n\t\tdaiToken = _daiToken;\n\t\towner = msg.sender;\n\t}\n\n\tfunction stakeTokens(uint _amount) public{\n\t\trequire(_amount > 0);\n\t\tdaiToken.transferFrom(msg.sender, address(this), _amount);\n\n\t\tstakingBalance[msg.sender] = stakingBalance[msg.sender] + _amount;\n\n\t\tif(!hasStaked[msg.sender]){\n\t\t\tstakers.push(msg.sender);\n\t\t}\n\t\thasStaked[msg.sender] = true;\n\t\tisStaking[msg.sender] = true;\n\t}\n\tfunction unstakeTokens() public {\n\t\tuint balance = stakingBalance[msg.sender];\n\t\trequire(balance > 0);\n\t\tdaiToken.transfer(msg.sender, balance);\n\t\tstakingBalance[msg.sender] = 0;\n\t\tisStaking[msg.sender] = false;\n\t}\n\tfunction issueTokens() public{\n\t\trequire(msg.sender == owner);\n\t\tfor (uint i = 0; i < stakers.length; i++){\n\t\t\taddress recipient = stakers[i];\n\t\t\tuint balance = stakingBalance[recipient];\n\t\t\tif(balance > 0){\n\t\t\t\tpoiToken.transfer(recipient, balance);\n\t\t\t}\n\t\t}\n\t}\n}\n",
  "sourcePath": "/Users/minjaelee/Documents/ERC-20/code/defi-farm/src/contracts/TokenFarm.sol",
  "compiler": {
    "name": "solc",
    "version": "0.8.11+commit.d7f03943.Emscripten.clang"
  },
  "schemaVersion": "3.4.3",
  "updatedAt": "2022-02-16T05:37:26.348Z",
  "networkType": "ethereum",
  "devdoc": {
    "kind": "dev",
    "methods": {},
    "version": 1
  },
  "userdoc": {
    "kind": "user",
    "methods": {},
    "version": 1
  }
}